{
  "_format": "hh-sol-artifact-1",
  "contractName": "CryptoTwitter",
  "sourceName": "contracts/CryptoTwitter.sol",
  "abi": [
    {
      "inputs": [],
      "stateMutability": "nonpayable",
      "type": "constructor"
    },
    {
      "anonymous": false,
      "inputs": [
        {
          "indexed": true,
          "internalType": "address",
          "name": "owner",
          "type": "address"
        },
        {
          "indexed": true,
          "internalType": "address",
          "name": "approved",
          "type": "address"
        },
        {
          "indexed": true,
          "internalType": "uint256",
          "name": "tokenId",
          "type": "uint256"
        }
      ],
      "name": "Approval",
      "type": "event"
    },
    {
      "anonymous": false,
      "inputs": [
        {
          "indexed": true,
          "internalType": "address",
          "name": "owner",
          "type": "address"
        },
        {
          "indexed": true,
          "internalType": "address",
          "name": "operator",
          "type": "address"
        },
        {
          "indexed": false,
          "internalType": "bool",
          "name": "approved",
          "type": "bool"
        }
      ],
      "name": "ApprovalForAll",
      "type": "event"
    },
    {
      "anonymous": false,
      "inputs": [
        {
          "indexed": false,
          "internalType": "uint256",
          "name": "_fromTokenId",
          "type": "uint256"
        },
        {
          "indexed": false,
          "internalType": "uint256",
          "name": "_toTokenId",
          "type": "uint256"
        }
      ],
      "name": "BatchMetadataUpdate",
      "type": "event"
    },
    {
      "anonymous": false,
      "inputs": [
        {
          "indexed": false,
          "internalType": "uint256",
          "name": "_tokenId",
          "type": "uint256"
        }
      ],
      "name": "MetadataUpdate",
      "type": "event"
    },
    {
      "anonymous": false,
      "inputs": [
        {
          "indexed": true,
          "internalType": "uint256",
          "name": "tokenId",
          "type": "uint256"
        }
      ],
      "name": "Mint",
      "type": "event"
    },
    {
      "anonymous": false,
      "inputs": [
        {
          "indexed": true,
          "internalType": "address",
          "name": "previousOwner",
          "type": "address"
        },
        {
          "indexed": true,
          "internalType": "address",
          "name": "newOwner",
          "type": "address"
        }
      ],
      "name": "OwnershipTransferred",
      "type": "event"
    },
    {
      "anonymous": false,
      "inputs": [
        {
          "indexed": true,
          "internalType": "address",
          "name": "from",
          "type": "address"
        },
        {
          "indexed": true,
          "internalType": "address",
          "name": "to",
          "type": "address"
        },
        {
          "indexed": true,
          "internalType": "uint256",
          "name": "tokenId",
          "type": "uint256"
        }
      ],
      "name": "Transfer",
      "type": "event"
    },
    {
      "inputs": [
        {
          "internalType": "address",
          "name": "to",
          "type": "address"
        },
        {
          "internalType": "uint256",
          "name": "tokenId",
          "type": "uint256"
        }
      ],
      "name": "approve",
      "outputs": [],
      "stateMutability": "nonpayable",
      "type": "function"
    },
    {
      "inputs": [
        {
          "internalType": "address",
          "name": "owner",
          "type": "address"
        }
      ],
      "name": "balanceOf",
      "outputs": [
        {
          "internalType": "uint256",
          "name": "",
          "type": "uint256"
        }
      ],
      "stateMutability": "view",
      "type": "function"
    },
    {
      "inputs": [
        {
          "internalType": "uint256",
          "name": "tokenId",
          "type": "uint256"
        }
      ],
      "name": "burn",
      "outputs": [],
      "stateMutability": "nonpayable",
      "type": "function"
    },
    {
      "inputs": [
        {
          "internalType": "uint256",
          "name": "tokenId",
          "type": "uint256"
        }
      ],
      "name": "generateImage",
      "outputs": [
        {
          "internalType": "string",
          "name": "",
          "type": "string"
        }
      ],
      "stateMutability": "view",
      "type": "function"
    },
    {
      "inputs": [
        {
          "internalType": "uint256",
          "name": "tokenId",
          "type": "uint256"
        }
      ],
      "name": "getApproved",
      "outputs": [
        {
          "internalType": "address",
          "name": "",
          "type": "address"
        }
      ],
      "stateMutability": "view",
      "type": "function"
    },
    {
      "inputs": [
        {
          "internalType": "string",
          "name": "dataId",
          "type": "string"
        }
      ],
      "name": "getDataByPostId",
      "outputs": [
        {
          "internalType": "string",
          "name": "id",
          "type": "string"
        },
        {
          "internalType": "uint256",
          "name": "createdAt",
          "type": "uint256"
        },
        {
          "internalType": "string",
          "name": "content",
          "type": "string"
        },
        {
          "internalType": "string",
          "name": "authorId",
          "type": "string"
        },
        {
          "internalType": "string",
          "name": "parentId",
          "type": "string"
        }
      ],
      "stateMutability": "view",
      "type": "function"
    },
    {
      "inputs": [
        {
          "internalType": "uint256",
          "name": "tokenId",
          "type": "uint256"
        }
      ],
      "name": "getNFTData",
      "outputs": [
        {
          "internalType": "string",
          "name": "id",
          "type": "string"
        },
        {
          "internalType": "uint256",
          "name": "createdAt",
          "type": "uint256"
        },
        {
          "internalType": "string",
          "name": "content",
          "type": "string"
        },
        {
          "internalType": "string",
          "name": "authorID",
          "type": "string"
        },
        {
          "internalType": "string",
          "name": "parentID",
          "type": "string"
        }
      ],
      "stateMutability": "view",
      "type": "function"
    },
    {
      "inputs": [
        {
          "internalType": "uint256",
          "name": "tokenId",
          "type": "uint256"
        }
      ],
      "name": "getTokenURI",
      "outputs": [
        {
          "internalType": "string",
          "name": "",
          "type": "string"
        }
      ],
      "stateMutability": "view",
      "type": "function"
    },
    {
      "inputs": [
        {
          "internalType": "address",
          "name": "owner",
          "type": "address"
        },
        {
          "internalType": "address",
          "name": "operator",
          "type": "address"
        }
      ],
      "name": "isApprovedForAll",
      "outputs": [
        {
          "internalType": "bool",
          "name": "",
          "type": "bool"
        }
      ],
      "stateMutability": "view",
      "type": "function"
    },
    {
      "inputs": [
        {
          "internalType": "address",
          "name": "recipient",
          "type": "address"
        },
        {
          "internalType": "uint256",
          "name": "createdAt",
          "type": "uint256"
        },
        {
          "internalType": "string",
          "name": "id",
          "type": "string"
        },
        {
          "internalType": "string",
          "name": "content",
          "type": "string"
        },
        {
          "internalType": "string",
          "name": "authorID",
          "type": "string"
        },
        {
          "internalType": "string",
          "name": "parentID",
          "type": "string"
        }
      ],
      "name": "mintNFT",
      "outputs": [
        {
          "internalType": "uint256",
          "name": "",
          "type": "uint256"
        }
      ],
      "stateMutability": "nonpayable",
      "type": "function"
    },
    {
      "inputs": [],
      "name": "name",
      "outputs": [
        {
          "internalType": "string",
          "name": "",
          "type": "string"
        }
      ],
      "stateMutability": "view",
      "type": "function"
    },
    {
      "inputs": [],
      "name": "owner",
      "outputs": [
        {
          "internalType": "address",
          "name": "",
          "type": "address"
        }
      ],
      "stateMutability": "view",
      "type": "function"
    },
    {
      "inputs": [
        {
          "internalType": "uint256",
          "name": "tokenId",
          "type": "uint256"
        }
      ],
      "name": "ownerOf",
      "outputs": [
        {
          "internalType": "address",
          "name": "",
          "type": "address"
        }
      ],
      "stateMutability": "view",
      "type": "function"
    },
    {
      "inputs": [],
      "name": "renounceOwnership",
      "outputs": [],
      "stateMutability": "nonpayable",
      "type": "function"
    },
    {
      "inputs": [
        {
          "internalType": "address",
          "name": "from",
          "type": "address"
        },
        {
          "internalType": "address",
          "name": "to",
          "type": "address"
        },
        {
          "internalType": "uint256",
          "name": "tokenId",
          "type": "uint256"
        }
      ],
      "name": "safeTransferFrom",
      "outputs": [],
      "stateMutability": "nonpayable",
      "type": "function"
    },
    {
      "inputs": [
        {
          "internalType": "address",
          "name": "from",
          "type": "address"
        },
        {
          "internalType": "address",
          "name": "to",
          "type": "address"
        },
        {
          "internalType": "uint256",
          "name": "tokenId",
          "type": "uint256"
        },
        {
          "internalType": "bytes",
          "name": "data",
          "type": "bytes"
        }
      ],
      "name": "safeTransferFrom",
      "outputs": [],
      "stateMutability": "nonpayable",
      "type": "function"
    },
    {
      "inputs": [
        {
          "internalType": "address",
          "name": "operator",
          "type": "address"
        },
        {
          "internalType": "bool",
          "name": "approved",
          "type": "bool"
        }
      ],
      "name": "setApprovalForAll",
      "outputs": [],
      "stateMutability": "nonpayable",
      "type": "function"
    },
    {
      "inputs": [
        {
          "internalType": "bytes4",
          "name": "interfaceId",
          "type": "bytes4"
        }
      ],
      "name": "supportsInterface",
      "outputs": [
        {
          "internalType": "bool",
          "name": "",
          "type": "bool"
        }
      ],
      "stateMutability": "view",
      "type": "function"
    },
    {
      "inputs": [],
      "name": "symbol",
      "outputs": [
        {
          "internalType": "string",
          "name": "",
          "type": "string"
        }
      ],
      "stateMutability": "view",
      "type": "function"
    },
    {
      "inputs": [
        {
          "internalType": "uint256",
          "name": "tokenId",
          "type": "uint256"
        }
      ],
      "name": "tokenURI",
      "outputs": [
        {
          "internalType": "string",
          "name": "",
          "type": "string"
        }
      ],
      "stateMutability": "view",
      "type": "function"
    },
    {
      "inputs": [
        {
          "internalType": "address",
          "name": "from",
          "type": "address"
        },
        {
          "internalType": "address",
          "name": "to",
          "type": "address"
        },
        {
          "internalType": "uint256",
          "name": "tokenId",
          "type": "uint256"
        }
      ],
      "name": "transferFrom",
      "outputs": [],
      "stateMutability": "nonpayable",
      "type": "function"
    },
    {
      "inputs": [
        {
          "internalType": "address",
          "name": "newOwner",
          "type": "address"
        }
      ],
      "name": "transferOwnership",
      "outputs": [],
      "stateMutability": "nonpayable",
      "type": "function"
    }
  ],
  "bytecode": "0x60806040523480156200001157600080fd5b506040518060400160405280600d81526020017f43727970746f54776974746572000000000000000000000000000000000000008152506040518060400160405280600581526020017f435457545200000000000000000000000000000000000000000000000000000081525081600090816200008f919062000412565b508060019081620000a1919062000412565b505050620000c4620000b8620000ca60201b60201c565b620000d260201b60201c565b620004f9565b600033905090565b6000600760009054906101000a900473ffffffffffffffffffffffffffffffffffffffff16905081600760006101000a81548173ffffffffffffffffffffffffffffffffffffffff021916908373ffffffffffffffffffffffffffffffffffffffff1602179055508173ffffffffffffffffffffffffffffffffffffffff168173ffffffffffffffffffffffffffffffffffffffff167f8be0079c531659141344cd1fd0a4f28419497f9722a3daafe3b4186f6b6457e060405160405180910390a35050565b600081519050919050565b7f4e487b7100000000000000000000000000000000000000000000000000000000600052604160045260246000fd5b7f4e487b7100000000000000000000000000000000000000000000000000000000600052602260045260246000fd5b600060028204905060018216806200021a57607f821691505b60208210810362000230576200022f620001d2565b5b50919050565b60008190508160005260206000209050919050565b60006020601f8301049050919050565b600082821b905092915050565b6000600883026200029a7fffffffffffffffffffffffffffffffffffffffffffffffffffffffffffffffff826200025b565b620002a686836200025b565b95508019841693508086168417925050509392505050565b6000819050919050565b6000819050919050565b6000620002f3620002ed620002e784620002be565b620002c8565b620002be565b9050919050565b6000819050919050565b6200030f83620002d2565b620003276200031e82620002fa565b84845462000268565b825550505050565b600090565b6200033e6200032f565b6200034b81848462000304565b505050565b5b8181101562000373576200036760008262000334565b60018101905062000351565b5050565b601f821115620003c2576200038c8162000236565b62000397846200024b565b81016020851015620003a7578190505b620003bf620003b6856200024b565b83018262000350565b50505b505050565b600082821c905092915050565b6000620003e760001984600802620003c7565b1980831691505092915050565b6000620004028383620003d4565b9150826002028217905092915050565b6200041d8262000198565b67ffffffffffffffff811115620004395762000438620001a3565b5b62000445825462000201565b6200045282828562000377565b600060209050601f8311600181146200048a576000841562000475578287015190505b620004818582620003f4565b865550620004f1565b601f1984166200049a8662000236565b60005b82811015620004c4578489015182556001820191506020850194506020810190506200049d565b86831015620004e45784890151620004e0601f891682620003d4565b8355505b6001600288020188555050505b505050505050565b614f1980620005096000396000f3fe608060405234801561001057600080fd5b50600436106101425760003560e01c806370a08231116100b8578063a22cb4651161007c578063a22cb4651461039f578063aaa5a2ba146103bb578063b88d4fde146103ef578063c87b56dd1461040b578063e985e9c51461043b578063f2fde38b1461046b57610142565b806370a08231146102f9578063715018a6146103295780637f005149146103335780638da5cb5b1461036357806395d89b411461038157610142565b806323b872dd1161010a57806323b872dd146102155780633bb3a24d1461023157806342842e0e1461026157806342966c681461027d5780634b44d812146102995780636352211e146102c957610142565b806301ffc9a71461014757806306fdde0314610177578063081812fc14610195578063095ea7b3146101c55780630ad4c4f4146101e1575b600080fd5b610161600480360381019061015c9190612f18565b610487565b60405161016e9190612f60565b60405180910390f35b61017f6104e8565b60405161018c919061300b565b60405180910390f35b6101af60048036038101906101aa9190613063565b61057a565b6040516101bc91906130d1565b60405180910390f35b6101df60048036038101906101da9190613118565b6105c0565b005b6101fb60048036038101906101f69190613063565b6106d7565b60405161020c959493929190613167565b60405180910390f35b61022f600480360381019061022a91906131d6565b6109c9565b005b61024b60048036038101906102469190613063565b610a29565b604051610258919061300b565b60405180910390f35b61027b600480360381019061027691906131d6565b610d6a565b005b61029760048036038101906102929190613063565b610d8a565b005b6102b360048036038101906102ae9190613063565b610e3e565b6040516102c0919061300b565b60405180910390f35b6102e360048036038101906102de9190613063565b61110d565b6040516102f091906130d1565b60405180910390f35b610313600480360381019061030e9190613229565b611193565b6040516103209190613256565b60405180910390f35b61033161124a565b005b61034d600480360381019061034891906133a6565b61125e565b60405161035a9190613256565b60405180910390f35b61036b61139b565b60405161037891906130d1565b60405180910390f35b6103896113c5565b604051610396919061300b565b60405180910390f35b6103b960048036038101906103b491906134cf565b611457565b005b6103d560048036038101906103d0919061350f565b61146d565b6040516103e6959493929190613167565b60405180910390f35b610409600480360381019061040491906135f9565b61179c565b005b61042560048036038101906104209190613063565b6117fe565b604051610432919061300b565b60405180910390f35b6104556004803603810190610450919061367c565b611910565b6040516104629190612f60565b60405180910390f35b61048560048036038101906104809190613229565b6119a4565b005b6000634906490660e01b7bffffffffffffffffffffffffffffffffffffffffffffffffffffffff1916827bffffffffffffffffffffffffffffffffffffffffffffffffffffffff191614806104e157506104e082611a27565b5b9050919050565b6060600080546104f7906136eb565b80601f0160208091040260200160405190810160405280929190818152602001828054610523906136eb565b80156105705780601f1061054557610100808354040283529160200191610570565b820191906000526020600020905b81548152906001019060200180831161055357829003601f168201915b5050505050905090565b600061058582611b09565b6004600083815260200190815260200160002060009054906101000a900473ffffffffffffffffffffffffffffffffffffffff169050919050565b60006105cb8261110d565b90508073ffffffffffffffffffffffffffffffffffffffff168373ffffffffffffffffffffffffffffffffffffffff160361063b576040517f08c379a00000000000000000000000000000000000000000000000000000000081526004016106329061378e565b60405180910390fd5b8073ffffffffffffffffffffffffffffffffffffffff1661065a611b54565b73ffffffffffffffffffffffffffffffffffffffff161480610689575061068881610683611b54565b611910565b5b6106c8576040517f08c379a00000000000000000000000000000000000000000000000000000000081526004016106bf90613820565b60405180910390fd5b6106d28383611b5c565b505050565b6060600060608060606106e986611c15565b610728576040517f08c379a000000000000000000000000000000000000000000000000000000000815260040161071f9061388c565b60405180910390fd5b6000600960008881526020019081526020016000206040518060a0016040529081600082018054610758906136eb565b80601f0160208091040260200160405190810160405280929190818152602001828054610784906136eb565b80156107d15780601f106107a6576101008083540402835291602001916107d1565b820191906000526020600020905b8154815290600101906020018083116107b457829003601f168201915b50505050508152602001600182015481526020016002820180546107f4906136eb565b80601f0160208091040260200160405190810160405280929190818152602001828054610820906136eb565b801561086d5780601f106108425761010080835404028352916020019161086d565b820191906000526020600020905b81548152906001019060200180831161085057829003601f168201915b50505050508152602001600382018054610886906136eb565b80601f01602080910402602001604051908101604052809291908181526020018280546108b2906136eb565b80156108ff5780601f106108d4576101008083540402835291602001916108ff565b820191906000526020600020905b8154815290600101906020018083116108e257829003601f168201915b50505050508152602001600482018054610918906136eb565b80601f0160208091040260200160405190810160405280929190818152602001828054610944906136eb565b80156109915780601f1061096657610100808354040283529160200191610991565b820191906000526020600020905b81548152906001019060200180831161097457829003601f168201915b505050505081525050905080600001518160200151826040015183606001518460800151955095509550955095505091939590929450565b6109da6109d4611b54565b82611c56565b610a19576040517f08c379a0000000000000000000000000000000000000000000000000000000008152600401610a109061391e565b60405180910390fd5b610a24838383611ceb565b505050565b60606000600960008481526020019081526020016000206040518060a0016040529081600082018054610a5b906136eb565b80601f0160208091040260200160405190810160405280929190818152602001828054610a87906136eb565b8015610ad45780601f10610aa957610100808354040283529160200191610ad4565b820191906000526020600020905b815481529060010190602001808311610ab757829003601f168201915b5050505050815260200160018201548152602001600282018054610af7906136eb565b80601f0160208091040260200160405190810160405280929190818152602001828054610b23906136eb565b8015610b705780601f10610b4557610100808354040283529160200191610b70565b820191906000526020600020905b815481529060010190602001808311610b5357829003601f168201915b50505050508152602001600382018054610b89906136eb565b80601f0160208091040260200160405190810160405280929190818152602001828054610bb5906136eb565b8015610c025780601f10610bd757610100808354040283529160200191610c02565b820191906000526020600020905b815481529060010190602001808311610be557829003601f168201915b50505050508152602001600482018054610c1b906136eb565b80601f0160208091040260200160405190810160405280929190818152602001828054610c47906136eb565b8015610c945780601f10610c6957610100808354040283529160200191610c94565b820191906000526020600020905b815481529060010190602001808311610c7757829003601f168201915b50505050508152505090506000816080015190506000815103610cea576040518060400160405280600481526020017f6e6f6e650000000000000000000000000000000000000000000000000000000081525090505b6000610cf98360200151611fe4565b8360600151838560400151610d0d89610e3e565b8760000151604051602001610d2796959493929190613d56565b6040516020818303038152906040529050610d41816120b2565b604051602001610d519190613e7e565b6040516020818303038152906040529350505050919050565b610d858383836040518060200160405280600081525061179c565b505050565b610d943382611c56565b610d9d57600080fd5b610da681612215565b600a60096000838152602001908152602001600020600001604051610dcb9190613f38565b9081526020016040518091039020600090556009600082815260200190815260200160002060008082016000610e019190612e4f565b6001820160009055600282016000610e199190612e4f565b600382016000610e299190612e4f565b600482016000610e399190612e4f565b505050565b60606000600960008481526020019081526020016000206040518060a0016040529081600082018054610e70906136eb565b80601f0160208091040260200160405190810160405280929190818152602001828054610e9c906136eb565b8015610ee95780601f10610ebe57610100808354040283529160200191610ee9565b820191906000526020600020905b815481529060010190602001808311610ecc57829003601f168201915b5050505050815260200160018201548152602001600282018054610f0c906136eb565b80601f0160208091040260200160405190810160405280929190818152602001828054610f38906136eb565b8015610f855780601f10610f5a57610100808354040283529160200191610f85565b820191906000526020600020905b815481529060010190602001808311610f6857829003601f168201915b50505050508152602001600382018054610f9e906136eb565b80601f0160208091040260200160405190810160405280929190818152602001828054610fca906136eb565b80156110175780601f10610fec57610100808354040283529160200191611017565b820191906000526020600020905b815481529060010190602001808311610ffa57829003601f168201915b50505050508152602001600482018054611030906136eb565b80601f016020809104026020016040519081016040528092919081815260200182805461105c906136eb565b80156110a95780601f1061107e576101008083540402835291602001916110a9565b820191906000526020600020905b81548152906001019060200180831161108c57829003601f168201915b5050505050815250509050600081604001516040516020016110cb919061432b565b60405160208183030381529060405290506110e5816120b2565b6040516020016110f591906143db565b60405160208183030381529060405292505050919050565b60008061111983612268565b9050600073ffffffffffffffffffffffffffffffffffffffff168173ffffffffffffffffffffffffffffffffffffffff160361118a576040517f08c379a000000000000000000000000000000000000000000000000000000000815260040161118190614449565b60405180910390fd5b80915050919050565b60008073ffffffffffffffffffffffffffffffffffffffff168273ffffffffffffffffffffffffffffffffffffffff1603611203576040517f08c379a00000000000000000000000000000000000000000000000000000000081526004016111fa906144db565b60405180910390fd5b600360008373ffffffffffffffffffffffffffffffffffffffff1673ffffffffffffffffffffffffffffffffffffffff168152602001908152602001600020549050919050565b6112526122a5565b61125c6000612323565b565b600061126a60086123e9565b600061127660086123ff565b9050611282888261240d565b60006040518060a00160405280888152602001898152602001878152602001868152602001858152509050806009600084815260200190815260200160002060008201518160000190816112d69190614692565b506020820151816001015560408201518160020190816112f69190614692565b50606082015181600301908161130c9190614692565b5060808201518160040190816113229190614692565b5090505081600a826000015160405161133b9190614764565b90815260200160405180910390208190555061135f8261135a84610a29565b61242b565b817f07883703ed0e86588a40d76551c92f8a4b329e3bf19765e0e6749473c1a8466560405160405180910390a281925050509695505050505050565b6000600760009054906101000a900473ffffffffffffffffffffffffffffffffffffffff16905090565b6060600180546113d4906136eb565b80601f0160208091040260200160405190810160405280929190818152602001828054611400906136eb565b801561144d5780601f106114225761010080835404028352916020019161144d565b820191906000526020600020905b81548152906001019060200180831161143057829003601f168201915b5050505050905090565b611469611462611b54565b83836124cf565b5050565b6060600060608060606000600a876040516114889190614764565b908152602001604051809103902054036114d7576040517f08c379a00000000000000000000000000000000000000000000000000000000081526004016114ce906147ed565b60405180910390fd5b6000600a876040516114e99190614764565b90815260200160405180910390205490506000600960008381526020019081526020016000206040518060a001604052908160008201805461152a906136eb565b80601f0160208091040260200160405190810160405280929190818152602001828054611556906136eb565b80156115a35780601f10611578576101008083540402835291602001916115a3565b820191906000526020600020905b81548152906001019060200180831161158657829003601f168201915b50505050508152602001600182015481526020016002820180546115c6906136eb565b80601f01602080910402602001604051908101604052809291908181526020018280546115f2906136eb565b801561163f5780601f106116145761010080835404028352916020019161163f565b820191906000526020600020905b81548152906001019060200180831161162257829003601f168201915b50505050508152602001600382018054611658906136eb565b80601f0160208091040260200160405190810160405280929190818152602001828054611684906136eb565b80156116d15780601f106116a6576101008083540402835291602001916116d1565b820191906000526020600020905b8154815290600101906020018083116116b457829003601f168201915b505050505081526020016004820180546116ea906136eb565b80601f0160208091040260200160405190810160405280929190818152602001828054611716906136eb565b80156117635780601f1061173857610100808354040283529160200191611763565b820191906000526020600020905b81548152906001019060200180831161174657829003601f168201915b50505050508152505090508060000151816020015182604001518360600151846080015196509650965096509650505091939590929450565b6117ad6117a7611b54565b83611c56565b6117ec576040517f08c379a00000000000000000000000000000000000000000000000000000000081526004016117e39061391e565b60405180910390fd5b6117f88484848461263b565b50505050565b606061180982611b09565b6000600660008481526020019081526020016000208054611829906136eb565b80601f0160208091040260200160405190810160405280929190818152602001828054611855906136eb565b80156118a25780601f10611877576101008083540402835291602001916118a2565b820191906000526020600020905b81548152906001019060200180831161188557829003601f168201915b5050505050905060006118b3612697565b905060008151036118c857819250505061190b565b6000825111156118fd5780826040516020016118e592919061480d565b6040516020818303038152906040529250505061190b565b611906846126ae565b925050505b919050565b6000600560008473ffffffffffffffffffffffffffffffffffffffff1673ffffffffffffffffffffffffffffffffffffffff16815260200190815260200160002060008373ffffffffffffffffffffffffffffffffffffffff1673ffffffffffffffffffffffffffffffffffffffff16815260200190815260200160002060009054906101000a900460ff16905092915050565b6119ac6122a5565b600073ffffffffffffffffffffffffffffffffffffffff168173ffffffffffffffffffffffffffffffffffffffff1603611a1b576040517f08c379a0000000000000000000000000000000000000000000000000000000008152600401611a12906148a3565b60405180910390fd5b611a2481612323565b50565b60007f80ac58cd000000000000000000000000000000000000000000000000000000007bffffffffffffffffffffffffffffffffffffffffffffffffffffffff1916827bffffffffffffffffffffffffffffffffffffffffffffffffffffffff19161480611af257507f5b5e139f000000000000000000000000000000000000000000000000000000007bffffffffffffffffffffffffffffffffffffffffffffffffffffffff1916827bffffffffffffffffffffffffffffffffffffffffffffffffffffffff1916145b80611b025750611b0182612716565b5b9050919050565b611b1281611c15565b611b51576040517f08c379a0000000000000000000000000000000000000000000000000000000008152600401611b4890614449565b60405180910390fd5b50565b600033905090565b816004600083815260200190815260200160002060006101000a81548173ffffffffffffffffffffffffffffffffffffffff021916908373ffffffffffffffffffffffffffffffffffffffff160217905550808273ffffffffffffffffffffffffffffffffffffffff16611bcf8361110d565b73ffffffffffffffffffffffffffffffffffffffff167f8c5be1e5ebec7d5bd14f71427d1e84f3dd0314c0f7b2291e5b200ac8c7c3b92560405160405180910390a45050565b60008073ffffffffffffffffffffffffffffffffffffffff16611c3783612268565b73ffffffffffffffffffffffffffffffffffffffff1614159050919050565b600080611c628361110d565b90508073ffffffffffffffffffffffffffffffffffffffff168473ffffffffffffffffffffffffffffffffffffffff161480611ca45750611ca38185611910565b5b80611ce257508373ffffffffffffffffffffffffffffffffffffffff16611cca8461057a565b73ffffffffffffffffffffffffffffffffffffffff16145b91505092915050565b8273ffffffffffffffffffffffffffffffffffffffff16611d0b8261110d565b73ffffffffffffffffffffffffffffffffffffffff1614611d61576040517f08c379a0000000000000000000000000000000000000000000000000000000008152600401611d5890614935565b60405180910390fd5b600073ffffffffffffffffffffffffffffffffffffffff168273ffffffffffffffffffffffffffffffffffffffff1603611dd0576040517f08c379a0000000000000000000000000000000000000000000000000000000008152600401611dc7906149c7565b60405180910390fd5b611ddd8383836001612780565b8273ffffffffffffffffffffffffffffffffffffffff16611dfd8261110d565b73ffffffffffffffffffffffffffffffffffffffff1614611e53576040517f08c379a0000000000000000000000000000000000000000000000000000000008152600401611e4a90614935565b60405180910390fd5b6004600082815260200190815260200160002060006101000a81549073ffffffffffffffffffffffffffffffffffffffff02191690556001600360008573ffffffffffffffffffffffffffffffffffffffff1673ffffffffffffffffffffffffffffffffffffffff168152602001908152602001600020600082825403925050819055506001600360008473ffffffffffffffffffffffffffffffffffffffff1673ffffffffffffffffffffffffffffffffffffffff16815260200190815260200160002060008282540192505081905550816002600083815260200190815260200160002060006101000a81548173ffffffffffffffffffffffffffffffffffffffff021916908373ffffffffffffffffffffffffffffffffffffffff160217905550808273ffffffffffffffffffffffffffffffffffffffff168473ffffffffffffffffffffffffffffffffffffffff167fddf252ad1be2c89b69c2b068fc378daa952ba7f163c4a11628f55a4df523b3ef60405160405180910390a4611fdf8383836001612786565b505050565b606060006001611ff38461278c565b01905060008167ffffffffffffffff8111156120125761201161327b565b5b6040519080825280601f01601f1916602001820160405280156120445781602001600182028036833780820191505090505b509050600082602001820190505b6001156120a7578080600190039150507f3031323334353637383961626364656600000000000000000000000000000000600a86061a8153600a858161209b5761209a6149e7565b5b04945060008503612052575b819350505050919050565b606060008251036120d457604051806020016040528060008152509050612210565b6000604051806060016040528060408152602001614ea460409139905060006003600285516121039190614a45565b61210d9190614a79565b60046121199190614aaa565b67ffffffffffffffff8111156121325761213161327b565b5b6040519080825280601f01601f1916602001820160405280156121645781602001600182028036833780820191505090505b509050600182016020820185865187015b808210156121d0576003820191508151603f8160121c168501518453600184019350603f81600c1c168501518453600184019350603f8160061c168501518453600184019350603f8116850151845360018401935050612175565b50506003865106600181146121ec57600281146121ff57612207565b603d6001830353603d6002830353612207565b603d60018303535b50505080925050505b919050565b61221e816128df565b600060066000838152602001908152602001600020805461223e906136eb565b905014612265576006600082815260200190815260200160002060006122649190612e4f565b5b50565b60006002600083815260200190815260200160002060009054906101000a900473ffffffffffffffffffffffffffffffffffffffff169050919050565b6122ad611b54565b73ffffffffffffffffffffffffffffffffffffffff166122cb61139b565b73ffffffffffffffffffffffffffffffffffffffff1614612321576040517f08c379a000000000000000000000000000000000000000000000000000000000815260040161231890614b38565b60405180910390fd5b565b6000600760009054906101000a900473ffffffffffffffffffffffffffffffffffffffff16905081600760006101000a81548173ffffffffffffffffffffffffffffffffffffffff021916908373ffffffffffffffffffffffffffffffffffffffff1602179055508173ffffffffffffffffffffffffffffffffffffffff168173ffffffffffffffffffffffffffffffffffffffff167f8be0079c531659141344cd1fd0a4f28419497f9722a3daafe3b4186f6b6457e060405160405180910390a35050565b6001816000016000828254019250508190555050565b600081600001549050919050565b612427828260405180602001604052806000815250612a2d565b5050565b61243482611c15565b612473576040517f08c379a000000000000000000000000000000000000000000000000000000000815260040161246a90614bca565b60405180910390fd5b806006600084815260200190815260200160002090816124939190614692565b507ff8e1a15aba9398e019f0b49df1a4fde98ee17ae345cb5f6b5e2c27f5033e8ce7826040516124c39190613256565b60405180910390a15050565b8173ffffffffffffffffffffffffffffffffffffffff168373ffffffffffffffffffffffffffffffffffffffff160361253d576040517f08c379a000000000000000000000000000000000000000000000000000000000815260040161253490614c36565b60405180910390fd5b80600560008573ffffffffffffffffffffffffffffffffffffffff1673ffffffffffffffffffffffffffffffffffffffff16815260200190815260200160002060008473ffffffffffffffffffffffffffffffffffffffff1673ffffffffffffffffffffffffffffffffffffffff16815260200190815260200160002060006101000a81548160ff0219169083151502179055508173ffffffffffffffffffffffffffffffffffffffff168373ffffffffffffffffffffffffffffffffffffffff167f17307eab39ab6107e8899845ad3d59bd9653f200f220920489ca2b5937696c318360405161262e9190612f60565b60405180910390a3505050565b612646848484611ceb565b61265284848484612a88565b612691576040517f08c379a000000000000000000000000000000000000000000000000000000000815260040161268890614cc8565b60405180910390fd5b50505050565b606060405180602001604052806000815250905090565b60606126b982611b09565b60006126c3612697565b905060008151116126e3576040518060200160405280600081525061270e565b806126ed84611fe4565b6040516020016126fe92919061480d565b6040516020818303038152906040525b915050919050565b60007f01ffc9a7000000000000000000000000000000000000000000000000000000007bffffffffffffffffffffffffffffffffffffffffffffffffffffffff1916827bffffffffffffffffffffffffffffffffffffffffffffffffffffffff1916149050919050565b50505050565b50505050565b600080600090507a184f03e93ff9f4daa797ed6e38ed64bf6a1f01000000000000000083106127ea577a184f03e93ff9f4daa797ed6e38ed64bf6a1f01000000000000000083816127e0576127df6149e7565b5b0492506040810190505b6d04ee2d6d415b85acef81000000008310612827576d04ee2d6d415b85acef8100000000838161281d5761281c6149e7565b5b0492506020810190505b662386f26fc10000831061285657662386f26fc10000838161284c5761284b6149e7565b5b0492506010810190505b6305f5e100831061287f576305f5e1008381612875576128746149e7565b5b0492506008810190505b61271083106128a457612710838161289a576128996149e7565b5b0492506004810190505b606483106128c757606483816128bd576128bc6149e7565b5b0492506002810190505b600a83106128d6576001810190505b80915050919050565b60006128ea8261110d565b90506128fa816000846001612780565b6129038261110d565b90506004600083815260200190815260200160002060006101000a81549073ffffffffffffffffffffffffffffffffffffffff02191690556001600360008373ffffffffffffffffffffffffffffffffffffffff1673ffffffffffffffffffffffffffffffffffffffff168152602001908152602001600020600082825403925050819055506002600083815260200190815260200160002060006101000a81549073ffffffffffffffffffffffffffffffffffffffff021916905581600073ffffffffffffffffffffffffffffffffffffffff168273ffffffffffffffffffffffffffffffffffffffff167fddf252ad1be2c89b69c2b068fc378daa952ba7f163c4a11628f55a4df523b3ef60405160405180910390a4612a29816000846001612786565b5050565b612a378383612c0f565b612a446000848484612a88565b612a83576040517f08c379a0000000000000000000000000000000000000000000000000000000008152600401612a7a90614cc8565b60405180910390fd5b505050565b6000612aa98473ffffffffffffffffffffffffffffffffffffffff16612e2c565b15612c02578373ffffffffffffffffffffffffffffffffffffffff1663150b7a02612ad2611b54565b8786866040518563ffffffff1660e01b8152600401612af49493929190614d3d565b6020604051808303816000875af1925050508015612b3057506040513d601f19601f82011682018060405250810190612b2d9190614d9e565b60015b612bb2573d8060008114612b60576040519150601f19603f3d011682016040523d82523d6000602084013e612b65565b606091505b506000815103612baa576040517f08c379a0000000000000000000000000000000000000000000000000000000008152600401612ba190614cc8565b60405180910390fd5b805181602001fd5b63150b7a0260e01b7bffffffffffffffffffffffffffffffffffffffffffffffffffffffff1916817bffffffffffffffffffffffffffffffffffffffffffffffffffffffff191614915050612c07565b600190505b949350505050565b600073ffffffffffffffffffffffffffffffffffffffff168273ffffffffffffffffffffffffffffffffffffffff1603612c7e576040517f08c379a0000000000000000000000000000000000000000000000000000000008152600401612c7590614e17565b60405180910390fd5b612c8781611c15565b15612cc7576040517f08c379a0000000000000000000000000000000000000000000000000000000008152600401612cbe90614e83565b60405180910390fd5b612cd5600083836001612780565b612cde81611c15565b15612d1e576040517f08c379a0000000000000000000000000000000000000000000000000000000008152600401612d1590614e83565b60405180910390fd5b6001600360008473ffffffffffffffffffffffffffffffffffffffff1673ffffffffffffffffffffffffffffffffffffffff16815260200190815260200160002060008282540192505081905550816002600083815260200190815260200160002060006101000a81548173ffffffffffffffffffffffffffffffffffffffff021916908373ffffffffffffffffffffffffffffffffffffffff160217905550808273ffffffffffffffffffffffffffffffffffffffff16600073ffffffffffffffffffffffffffffffffffffffff167fddf252ad1be2c89b69c2b068fc378daa952ba7f163c4a11628f55a4df523b3ef60405160405180910390a4612e28600083836001612786565b5050565b6000808273ffffffffffffffffffffffffffffffffffffffff163b119050919050565b508054612e5b906136eb565b6000825580601f10612e6d5750612e8c565b601f016020900490600052602060002090810190612e8b9190612e8f565b5b50565b5b80821115612ea8576000816000905550600101612e90565b5090565b6000604051905090565b600080fd5b600080fd5b60007fffffffff0000000000000000000000000000000000000000000000000000000082169050919050565b612ef581612ec0565b8114612f0057600080fd5b50565b600081359050612f1281612eec565b92915050565b600060208284031215612f2e57612f2d612eb6565b5b6000612f3c84828501612f03565b91505092915050565b60008115159050919050565b612f5a81612f45565b82525050565b6000602082019050612f756000830184612f51565b92915050565b600081519050919050565b600082825260208201905092915050565b60005b83811015612fb5578082015181840152602081019050612f9a565b60008484015250505050565b6000601f19601f8301169050919050565b6000612fdd82612f7b565b612fe78185612f86565b9350612ff7818560208601612f97565b61300081612fc1565b840191505092915050565b600060208201905081810360008301526130258184612fd2565b905092915050565b6000819050919050565b6130408161302d565b811461304b57600080fd5b50565b60008135905061305d81613037565b92915050565b60006020828403121561307957613078612eb6565b5b60006130878482850161304e565b91505092915050565b600073ffffffffffffffffffffffffffffffffffffffff82169050919050565b60006130bb82613090565b9050919050565b6130cb816130b0565b82525050565b60006020820190506130e660008301846130c2565b92915050565b6130f5816130b0565b811461310057600080fd5b50565b600081359050613112816130ec565b92915050565b6000806040838503121561312f5761312e612eb6565b5b600061313d85828601613103565b925050602061314e8582860161304e565b9150509250929050565b6131618161302d565b82525050565b600060a08201905081810360008301526131818188612fd2565b90506131906020830187613158565b81810360408301526131a28186612fd2565b905081810360608301526131b68185612fd2565b905081810360808301526131ca8184612fd2565b90509695505050505050565b6000806000606084860312156131ef576131ee612eb6565b5b60006131fd86828701613103565b935050602061320e86828701613103565b925050604061321f8682870161304e565b9150509250925092565b60006020828403121561323f5761323e612eb6565b5b600061324d84828501613103565b91505092915050565b600060208201905061326b6000830184613158565b92915050565b600080fd5b600080fd5b7f4e487b7100000000000000000000000000000000000000000000000000000000600052604160045260246000fd5b6132b382612fc1565b810181811067ffffffffffffffff821117156132d2576132d161327b565b5b80604052505050565b60006132e5612eac565b90506132f182826132aa565b919050565b600067ffffffffffffffff8211156133115761331061327b565b5b61331a82612fc1565b9050602081019050919050565b82818337600083830152505050565b6000613349613344846132f6565b6132db565b90508281526020810184848401111561336557613364613276565b5b613370848285613327565b509392505050565b600082601f83011261338d5761338c613271565b5b813561339d848260208601613336565b91505092915050565b60008060008060008060c087890312156133c3576133c2612eb6565b5b60006133d189828a01613103565b96505060206133e289828a0161304e565b955050604087013567ffffffffffffffff81111561340357613402612ebb565b5b61340f89828a01613378565b945050606087013567ffffffffffffffff8111156134305761342f612ebb565b5b61343c89828a01613378565b935050608087013567ffffffffffffffff81111561345d5761345c612ebb565b5b61346989828a01613378565b92505060a087013567ffffffffffffffff81111561348a57613489612ebb565b5b61349689828a01613378565b9150509295509295509295565b6134ac81612f45565b81146134b757600080fd5b50565b6000813590506134c9816134a3565b92915050565b600080604083850312156134e6576134e5612eb6565b5b60006134f485828601613103565b9250506020613505858286016134ba565b9150509250929050565b60006020828403121561352557613524612eb6565b5b600082013567ffffffffffffffff81111561354357613542612ebb565b5b61354f84828501613378565b91505092915050565b600067ffffffffffffffff8211156135735761357261327b565b5b61357c82612fc1565b9050602081019050919050565b600061359c61359784613558565b6132db565b9050828152602081018484840111156135b8576135b7613276565b5b6135c3848285613327565b509392505050565b600082601f8301126135e0576135df613271565b5b81356135f0848260208601613589565b91505092915050565b6000806000806080858703121561361357613612612eb6565b5b600061362187828801613103565b945050602061363287828801613103565b93505060406136438782880161304e565b925050606085013567ffffffffffffffff81111561366457613663612ebb565b5b613670878288016135cb565b91505092959194509250565b6000806040838503121561369357613692612eb6565b5b60006136a185828601613103565b92505060206136b285828601613103565b9150509250929050565b7f4e487b7100000000000000000000000000000000000000000000000000000000600052602260045260246000fd5b6000600282049050600182168061370357607f821691505b602082108103613716576137156136bc565b5b50919050565b7f4552433732313a20617070726f76616c20746f2063757272656e74206f776e6560008201527f7200000000000000000000000000000000000000000000000000000000000000602082015250565b6000613778602183612f86565b91506137838261371c565b604082019050919050565b600060208201905081810360008301526137a78161376b565b9050919050565b7f4552433732313a20617070726f76652063616c6c6572206973206e6f7420746f60008201527f6b656e206f776e6572206f7220617070726f76656420666f7220616c6c000000602082015250565b600061380a603d83612f86565b9150613815826137ae565b604082019050919050565b60006020820190508181036000830152613839816137fd565b9050919050565b7f546f6b656e20646f6573206e6f74206578697374000000000000000000000000600082015250565b6000613876601483612f86565b915061388182613840565b602082019050919050565b600060208201905081810360008301526138a581613869565b9050919050565b7f4552433732313a2063616c6c6572206973206e6f7420746f6b656e206f776e6560008201527f72206f7220617070726f76656400000000000000000000000000000000000000602082015250565b6000613908602d83612f86565b9150613913826138ac565b604082019050919050565b60006020820190508181036000830152613937816138fb565b9050919050565b600081905092915050565b7f7b00000000000000000000000000000000000000000000000000000000000000600082015250565b600061397f60018361393e565b915061398a82613949565b600182019050919050565b7f2261747472696275746573223a205b7b22646973706c61795f74797065223a2060008201527f2264617465222c202274726169745f74797065223a202244617465222c20227660208201527f616c7565223a2000000000000000000000000000000000000000000000000000604082015250565b6000613a1760478361393e565b9150613a2282613995565b604782019050919050565b6000613a3882612f7b565b613a42818561393e565b9350613a52818560208601612f97565b80840191505092915050565b7f7d2c7b2274726169745f74797065223a2022417574686f72222c2276616c756560008201527f223a202200000000000000000000000000000000000000000000000000000000602082015250565b6000613aba60248361393e565b9150613ac582613a5e565b602482019050919050565b7f227d2c7b2274726169745f74797065223a2022506172656e74222c2276616c7560008201527f65223a2022000000000000000000000000000000000000000000000000000000602082015250565b6000613b2c60258361393e565b9150613b3782613ad0565b602582019050919050565b7f227d5d2c00000000000000000000000000000000000000000000000000000000600082015250565b6000613b7860048361393e565b9150613b8382613b42565b600482019050919050565b7f226465736372697074696f6e223a202200000000000000000000000000000000600082015250565b6000613bc460108361393e565b9150613bcf82613b8e565b601082019050919050565b7f222c000000000000000000000000000000000000000000000000000000000000600082015250565b6000613c1060028361393e565b9150613c1b82613bda565b600282019050919050565b7f22696d616765223a202200000000000000000000000000000000000000000000600082015250565b6000613c5c600a8361393e565b9150613c6782613c26565b600a82019050919050565b7f226e616d65223a2022506f737420000000000000000000000000000000000000600082015250565b6000613ca8600e8361393e565b9150613cb382613c72565b600e82019050919050565b7f2200000000000000000000000000000000000000000000000000000000000000600082015250565b6000613cf460018361393e565b9150613cff82613cbe565b600182019050919050565b7f7d00000000000000000000000000000000000000000000000000000000000000600082015250565b6000613d4060018361393e565b9150613d4b82613d0a565b600182019050919050565b6000613d6182613972565b9150613d6c82613a0a565b9150613d788289613a2d565b9150613d8382613aad565b9150613d8f8288613a2d565b9150613d9a82613b1f565b9150613da68287613a2d565b9150613db182613b6b565b9150613dbc82613bb7565b9150613dc88286613a2d565b9150613dd382613c03565b9150613dde82613c4f565b9150613dea8285613a2d565b9150613df582613c03565b9150613e0082613c9b565b9150613e0c8284613a2d565b9150613e1782613ce7565b9150613e2282613d33565b9150819050979650505050505050565b7f646174613a6170706c69636174696f6e2f6a736f6e3b6261736536342c000000600082015250565b6000613e68601d8361393e565b9150613e7382613e32565b601d82019050919050565b6000613e8982613e5b565b9150613e958284613a2d565b915081905092915050565b60008190508160005260206000209050919050565b60008154613ec2816136eb565b613ecc818661393e565b94506001821660008114613ee75760018114613efc57613f2f565b60ff1983168652811515820286019350613f2f565b613f0585613ea0565b60005b83811015613f2757815481890152600182019150602081019050613f08565b838801955050505b50505092915050565b6000613f448284613eb5565b915081905092915050565b7f3c73766720786d6c6e733d22687474703a2f2f7777772e77332e6f72672f323060008201527f30302f73766722207072657365727665417370656374526174696f3d22784d6960208201527f6e594d696e206d656574222076696577426f783d22302030203335302033353060408201527f223e000000000000000000000000000000000000000000000000000000000000606082015250565b6000613ff760628361393e565b915061400282613f4f565b606282019050919050565b7f3c726563742077696474683d223130302522206865696768743d22313030252260008201527f2066696c6c3d22626c61636b222f3e0000000000000000000000000000000000602082015250565b6000614069602f8361393e565b91506140748261400d565b602f82019050919050565b7f3c666f726569676e4f626a6563742077696474683d223130302522206865696760008201527f68743d223130302522207374796c653d2270616464696e672d6c6566743a203160208201527f30253b2070616464696e672d72696768743a203130253b223e00000000000000604082015250565b600061410160598361393e565b915061410c8261407f565b605982019050919050565b7f3c64697620786d6c6e733d22687474703a2f2f7777772e77332e6f72672f313960008201527f39392f7868746d6c22207374796c653d2277696474683a20313030253b20686560208201527f696768743a20313030253b20646973706c61793a20666c65783b20746578742d60408201527f616c69676e3a2063656e7465723b20776f72642d777261703a20616e7977686560608201527f72653b20636f6c6f723a20236666666666663b20616c69676e2d6974656d733a60808201527f2063656e7465723b206a7573746966792d636f6e74656e743a2063656e74657260a08201527f3b223e000000000000000000000000000000000000000000000000000000000060c082015250565b600061423160c38361393e565b915061423c82614117565b60c382019050919050565b7f3c2f6469763e0000000000000000000000000000000000000000000000000000600082015250565b600061427d60068361393e565b915061428882614247565b600682019050919050565b7f3c2f666f726569676e4f626a6563743e00000000000000000000000000000000600082015250565b60006142c960108361393e565b91506142d482614293565b601082019050919050565b7f3c2f7376673e0000000000000000000000000000000000000000000000000000600082015250565b600061431560068361393e565b9150614320826142df565b600682019050919050565b600061433682613fea565b91506143418261405c565b915061434c826140f4565b915061435782614224565b91506143638284613a2d565b915061436e82614270565b9150614379826142bc565b915061438482614308565b915081905092915050565b7f646174613a696d6167652f7376672b786d6c3b6261736536342c000000000000600082015250565b60006143c5601a8361393e565b91506143d08261438f565b601a82019050919050565b60006143e6826143b8565b91506143f28284613a2d565b915081905092915050565b7f4552433732313a20696e76616c696420746f6b656e2049440000000000000000600082015250565b6000614433601883612f86565b915061443e826143fd565b602082019050919050565b6000602082019050818103600083015261446281614426565b9050919050565b7f4552433732313a2061646472657373207a65726f206973206e6f74206120766160008201527f6c6964206f776e65720000000000000000000000000000000000000000000000602082015250565b60006144c5602983612f86565b91506144d082614469565b604082019050919050565b600060208201905081810360008301526144f4816144b8565b9050919050565b60006020601f8301049050919050565b600082821b905092915050565b6000600883026145487fffffffffffffffffffffffffffffffffffffffffffffffffffffffffffffffff8261450b565b614552868361450b565b95508019841693508086168417925050509392505050565b6000819050919050565b600061458f61458a6145858461302d565b61456a565b61302d565b9050919050565b6000819050919050565b6145a983614574565b6145bd6145b582614596565b848454614518565b825550505050565b600090565b6145d26145c5565b6145dd8184846145a0565b505050565b5b81811015614601576145f66000826145ca565b6001810190506145e3565b5050565b601f8211156146465761461781613ea0565b614620846144fb565b8101602085101561462f578190505b61464361463b856144fb565b8301826145e2565b50505b505050565b600082821c905092915050565b60006146696000198460080261464b565b1980831691505092915050565b60006146828383614658565b9150826002028217905092915050565b61469b82612f7b565b67ffffffffffffffff8111156146b4576146b361327b565b5b6146be82546136eb565b6146c9828285614605565b600060209050601f8311600181146146fc57600084156146ea578287015190505b6146f48582614676565b86555061475c565b601f19841661470a86613ea0565b60005b828110156147325784890151825560018201915060208501945060208101905061470d565b8683101561474f578489015161474b601f891682614658565b8355505b6001600288020188555050505b505050505050565b60006147708284613a2d565b915081905092915050565b7f546f6b656e2077697468206461746120494420646f6573206e6f74206578697360008201527f7400000000000000000000000000000000000000000000000000000000000000602082015250565b60006147d7602183612f86565b91506147e28261477b565b604082019050919050565b60006020820190508181036000830152614806816147ca565b9050919050565b60006148198285613a2d565b91506148258284613a2d565b91508190509392505050565b7f4f776e61626c653a206e6577206f776e657220697320746865207a65726f206160008201527f6464726573730000000000000000000000000000000000000000000000000000602082015250565b600061488d602683612f86565b915061489882614831565b604082019050919050565b600060208201905081810360008301526148bc81614880565b9050919050565b7f4552433732313a207472616e736665722066726f6d20696e636f72726563742060008201527f6f776e6572000000000000000000000000000000000000000000000000000000602082015250565b600061491f602583612f86565b915061492a826148c3565b604082019050919050565b6000602082019050818103600083015261494e81614912565b9050919050565b7f4552433732313a207472616e7366657220746f20746865207a65726f2061646460008201527f7265737300000000000000000000000000000000000000000000000000000000602082015250565b60006149b1602483612f86565b91506149bc82614955565b604082019050919050565b600060208201905081810360008301526149e0816149a4565b9050919050565b7f4e487b7100000000000000000000000000000000000000000000000000000000600052601260045260246000fd5b7f4e487b7100000000000000000000000000000000000000000000000000000000600052601160045260246000fd5b6000614a508261302d565b9150614a5b8361302d565b9250828201905080821115614a7357614a72614a16565b5b92915050565b6000614a848261302d565b9150614a8f8361302d565b925082614a9f57614a9e6149e7565b5b828204905092915050565b6000614ab58261302d565b9150614ac08361302d565b9250828202614ace8161302d565b91508282048414831517614ae557614ae4614a16565b5b5092915050565b7f4f776e61626c653a2063616c6c6572206973206e6f7420746865206f776e6572600082015250565b6000614b22602083612f86565b9150614b2d82614aec565b602082019050919050565b60006020820190508181036000830152614b5181614b15565b9050919050565b7f45524337323155524953746f726167653a2055524920736574206f66206e6f6e60008201527f6578697374656e7420746f6b656e000000000000000000000000000000000000602082015250565b6000614bb4602e83612f86565b9150614bbf82614b58565b604082019050919050565b60006020820190508181036000830152614be381614ba7565b9050919050565b7f4552433732313a20617070726f766520746f2063616c6c657200000000000000600082015250565b6000614c20601983612f86565b9150614c2b82614bea565b602082019050919050565b60006020820190508181036000830152614c4f81614c13565b9050919050565b7f4552433732313a207472616e7366657220746f206e6f6e20455243373231526560008201527f63656976657220696d706c656d656e7465720000000000000000000000000000602082015250565b6000614cb2603283612f86565b9150614cbd82614c56565b604082019050919050565b60006020820190508181036000830152614ce181614ca5565b9050919050565b600081519050919050565b600082825260208201905092915050565b6000614d0f82614ce8565b614d198185614cf3565b9350614d29818560208601612f97565b614d3281612fc1565b840191505092915050565b6000608082019050614d5260008301876130c2565b614d5f60208301866130c2565b614d6c6040830185613158565b8181036060830152614d7e8184614d04565b905095945050505050565b600081519050614d9881612eec565b92915050565b600060208284031215614db457614db3612eb6565b5b6000614dc284828501614d89565b91505092915050565b7f4552433732313a206d696e7420746f20746865207a65726f2061646472657373600082015250565b6000614e01602083612f86565b9150614e0c82614dcb565b602082019050919050565b60006020820190508181036000830152614e3081614df4565b9050919050565b7f4552433732313a20746f6b656e20616c7265616479206d696e74656400000000600082015250565b6000614e6d601c83612f86565b9150614e7882614e37565b602082019050919050565b60006020820190508181036000830152614e9c81614e60565b905091905056fe4142434445464748494a4b4c4d4e4f505152535455565758595a6162636465666768696a6b6c6d6e6f707172737475767778797a303132333435363738392b2fa2646970667358221220b5ed836e8232cbba6448955af65a3e4d8117fbb9ea5e472c4f2e8b40017bca4864736f6c63430008120033",
  "linkReferences": {},
  "deployedLinkReferences": {}
}